:100000000C9409030C9450030C9450030C9450036B
:100010000C9450030C9450030C9450030C94500314
:100020000C9450030C9450030C94862C0C94582D73
:100030000C945B220C9450030C9450030C945003CA
:100040000C9450030C9450030C9450030C945003E4
:100050000C9450030C94C3220C9450030C94500342
:100060000C9450030C9450030C9450030C945003C4
:100070000C9450030C9450030C9450030C945003B4
:100080000C94380A0C9450030C9450030C945003B5
:100090000C9450030C9450030C9450030C94500394
:1000A0000C9450030C9450030C9450038A03920355
:1000B000960378037A037E03800382038403860316
:1000C0008803060508050A050C050E05100512052E
:1000D00014051E05200522052405260528052A05E8
:1000E0002C052E053A05EB0F02101D1015112A12D2
:1000F00061119A11E01190199019C219C219001AD0
:100100004E1B4E1B4E1B201A4E1BCD1ACD1A3E1BEA
:100110004E1B4E1B471BDA1ADA1ADA1ADA1ADA1AE7
:10012000DA1ADA1ADA1ADA1ADA1ADA1ADA1ADA1A2F
:10013000DA1ADA1ADA1AEB1AF91A001B071B111B62
:10014000D91BD91BEB1BEB1BE21BEB1BEB1BEB1BAC
:10015000D91BD91BE71BEB1BEB1BE71BC52DEC2D9C
:10016000DE2EEC2DDE2E382E5B2EDE2EB12EC02E96
:1001700007634236B79BD8A71A39685618AEBAAB90
:10018000558C1D3CB7CC5763BD6DEDFD753EF61724
:100190007231BF000000803F08000000BE92244979
:1001A000123EABAAAA2ABECDCCCC4C3E00000080A9
:1001B000BEABAAAAAA3E00000000BF000000803F1C
:1001C0000000000000084178D3BB4387D1133D19DC
:1001D0000E3CC3BD4282AD2B3E68EC8276BED98F09
:1001E000E1A93E4C80EFFFBE01C4FF7F3F0000004D
:1001F000000035001E001F00200021002200230007
:1002000024002500260027002D002B4514001A008D
:100210000800150017001C0018000C001200130045
:100220003100296104001600070009000A000B00D4
:100230000D000E000F0033432861E1001D001B007C
:1002400006001900050011001000360037003800C4
:10025000E500000F0007E300E200DB5C2C002C004F
:10026000DC5CE600E7000007000F3A003B003C00C2
:100270003D003E003F00400041004200430044007A
:10028000450001003A003B003C003D003E003F00BD
:100290004000410042004300010001002F022F00F6
:1002A00026023602340034023702270230003002C0
:1002B00001000100010020022202380001000100BB
:1002C00038002202200201000100010001000100AB
:1002D000010001002C002A000100010001000100C2
:1002E0000100680069006A006B006C006D006E0020
:1002F0006F00700071007200730001001E001F008B
:1003000020002100220023002400250026002700D1
:100310000100010054005600380224022E002E0075
:1003200031021E0257005500010001000100350294
:10033000010001000100010023022202010001006E
:100340000100010001000100010001004C002C002F
:100350000100010001000100010001000100010095
:100360000100010001000100010001000100010085
:10037000010000000000000000000000000000007C
:1003800000000000000000000000010000004A0022
:100390004B004E004D005000510052004F003343BF
:1003A000010001000000000000000000000000004B
:1003B0000000000000000000010001000100010039
:1003C0000100000000000000000001000100010029
:1003D0000100005C1D5C1E5C295C285C01000100C2
:1003E00001000100010001004C000100245C255CBB
:1003F00001000100010001000100010001000100F5
:100400002A0001002A5C2B5C0100DD5C0100010078
:10041000DE5C01000100010001000100DD5CDE5C2A
:10042000DF5CE05C01000100E15CE25CE35CE45C59
:1004300001000100010001000100010001000100B4
:1004400001000100010001000100000050085108F6
:1004500052084F0800000000530054005500560099
:10046000A9002B4550092B084F090000000000008F
:100470005F00600061005700AA000000000000005B
:1004800029042906000000005D005E005F0057009F
:10049000A8000000000000000000000000000000B4
:1004A00059005A005B005800AC000000000000003A
:1004B00000000000AE00AD00620062006300580062
:1004C000AB00040330000000100350007200650010
:1004D0006F006E006900630000000A034F004C00CB
:1004E0004B00420000000403090409029F000401BC
:1004F00000A0FA0904000001030101000921110113
:1005000000012240000705810308000A09040100D8
:100510000103000000092111010001223600070536
:10052000820308000A080B0202010100000904020C
:100530000000010100000924010001090001030974
:10054000040300020103000007240100014100062A
:10055000240201010006240202020009240301030F
:10056000010201000924030204010101000905043C
:100570000240000500000525010101090583024034
:100580000005000005250101031201100100000013
:1005900008EDFE616002000102030105010980A16E
:1005A0000185021601002603001A81002A830075C6
:1005B0001095018100C0050C0901A10185031601F8
:1005C00000269C021A01002A9C02751095018100E8
:1005D000C005010906A101050719E029E715002555
:1005E00001950875018102950175088101050819B9
:1005F0000129059505750191029501750391010584
:1006000007190029FF150026FF00950675088100CF
:10061000C00011241FBECFEFDAE0DEBFCDBF04B6AD
:1006200003FE27C08091E4079091E507A091E607BB
:10063000B091E7078730904BA740B04BD1F41092B0
:10064000E4071092E5071092E6071092E70714BE40
:1006500084B7877F84BF0FB6F894A8958091600017
:10066000886180936000109260000FBEE0E0F8E3C4
:10067000099515E0A0E0B1E0ECE9F8E602C00590CC
:100680000D92A438B107D9F727E0A4E8B5E001C07E
:100690001D92A43EB207E1F70E9459290C944C34F4
:1006A0000C9400006E9A769A0C94A508CF93C82FEC
:1006B0002FE7482F60E08AEE96E00E94562320E064
:1006C0004C2F60E08AEE96E0CF910C945623FB010C
:1006D000928191110C9456030895CF93FC01EA5D29
:1006E000FC45EB30F105C0F5EA5AFF4F0C9451334D
:1006F00082E301C083E30E94670324C084E3FBCF4D
:1007000085E3F9CF86E3F7CF87E3F5CF88E3F3CF2F
:1007100089E3F1CFFB01C281CC23F9F080E00E9494
:10072000B40310C0FB01C28181E003C0FB01C281A0
:1007300082E0CC2349F00E94FE1F44E062E081E0A9
:100740000E942804C0E009C00E941F2044E062E02B
:1007500081E00E94280401C0C1E08C2FCF91089550
:1007600081E008950C946D03CF93DF93C82F20E8A8
:10077000829FC001112440E060E170E08C5F9E4FD9
:100780000E94790D61E070E0CB0102C0880F991FD3
:10079000CA95E2F7EC010E94BC21BE0180E090E026
:1007A000DF91CF910C949D1F8F929F92AF92BF9239
:1007B000CF92DF92EF92FF920F931F936B017C0118
:1007C00081E090E0A0E0B0E04C015D0104C0880C45
:1007D000991CAA1CBB1C4A95D2F7AC01BD0104C0F0
:1007E000440F551F661F771F2A95D2F748295929AC
:1007F0006A297B2904C0880F991FAA1FBB1F0A956D
:10080000D2F78A019B010C211D212E213F210417C3
:1008100015072607370739F4BC01CD016C297D295E
:100820008E299F290AC080959095A095B095BC010E
:10083000CD016C217D218E219F211F910F91FF9071
:10084000EF90DF90CF90BF90AF909F908F900895E2
:100850000F93382F262F6091B6067091B7068091BE
:10086000B8069091B906042F432F0E94D4030F912C
:100870000C94D81F0E94F60D0C9452030E94171579
:100880000C94A70808950C9442040C944304089512
:10089000CF93DF930E94C71B0E9445120E94DE1473
:1008A0000E948D22EC0140E063E070E084EB92E076
:1008B0000E94790D0E944704CE010E9499228A3F2E
:1008C000910538F48FE99FE00197F1F700C000002F
:1008D000F3CF0E94390EDF91CF910C94E9220F9350
:1008E0001F93CF93DF938C01FC01C081D181CE0196
:1008F0000E949C20BE010E94F805EC01B8010E94F4
:10090000B203882309F46AC1B801CE010E947812AB
:10091000882309F463C1B801CE010E94B509882378
:1009200009F45CC1B801CE010E947215882309F454
:1009300055C1B801CE010E945608882309F44EC162
:10094000C531FCE5DF0739F50E944E21282FF8015B
:1009500082814091D8045091D904882379F02A7A71
:1009600091E009F490E090938405911102C069E24E
:1009700001C065E3CA010E9406220AC08091840575
:10098000811102C069E201C065E3CA010E94082228
:100990000E941B2123C1C6318CE5D80708F091C005
:1009A000C130ECE5DE0759F4F8018281882309F4AF
:1009B00015C18091CB0681608093CB060FC1C230F8
:1009C000FCE5DF0708F466C0F8018281882309F49A
:1009D00069C00E94A921811102C00E948A210E943F
:1009E000C12190E09093E9068093E806FE01E35070
:1009F000FC45E231F10530F4EF59FF4F8091E806F4
:100A00000C9451338091E80681603BC0826039C00C
:100A1000846037C0886035C0806133C0806231C077
:100A200080642FC080682DC0846088608093E80651
:100A300040E064E070E084E892E019C08E7F21C05D
:100A40008D7F1FC08B7F1DC0877F1BC08F7E19C00D
:100A50008F7D17C08F7B15C08F7713C08B7F877FEB
:100A60008093E80640E062E070E084EA92E00E9451
:100A7000790D09C087FB222720F991E0922790FB8E
:100A800087F98093E8068091E8060E94C5210E94BC
:100A9000C71BA4C0C115DC4561F081E080938905C6
:100AA00080938A05C801DF91CF911F910F910C941B
:100AB000B003F8018281882309F490C00E944804A1
:100AC0008DC0C53DECE5DE0759F5F801828188232C
:100AD00061F010928A050E948D2290938805809380
:100AE000870580E20E944C1979C080918A0588238D
:100AF00021F080E20E94531971C080918705909186
:100B000088050E949922883C910598F780E20E940E
:100B1000531988E20E94F61788E20E94ED185EC021
:100B2000C63DFCE5DF0708F044C0C33D8CE5D807AF
:100B300019F5F8018281882351F0109289050E94ED
:100B40008D22909386058093850582E0CBCF80919E
:100B5000890581110FC080918505909186050E94BD
:100B60009922883C910530F486E20E94F61786E2CD
:100B70000E94ED1882E0BECFC43DDC4509F08DCF68
:100B8000F80182818111A5CF80918A058111B1CFB1
:100B900080918705909188050E949922883C910553
:100BA00008F0A7CF87E20E94F61787E20E94ED18AF
:100BB000A0CFC83DFCE5DF0731F4F801828188232E
:100BC00069F080E009C0C93DDC4509F066CFF80155
:100BD0008281882319F082E00E94FE2980E0DF9163
:100BE000CF911F910F91089580E090E008950895AE
:100BF0009CE0799FF00111249CE3899FE00DF11D99
:100C00001124E60FF11DEE0FFF1FEE50FE4F8591F0
:100C100094910895880F991FFC01EE53FB4F859125
:100C200094910895CF93DF930E94F8050E94B50731
:100C3000EC01811520E59207F0F5811530E493076A
:100C400008F018C1883E910500F5803E910508F036
:100C500088C1883A910570F4853A910508F09AC0E8
:100C60008130910509F47DC108F434C1049708F07E
:100C700078C130C18D3B910508F497C0803C910547
:100C800008F428C1805C9109E7C08115904258F4AE
:100C9000C11581E0D80708F064C1C03FD10508F450
:100CA00019C1D0655EC1C11590E3D90708F0D8C05D
:100CB000CE019F70D1C0811525E5920708F043C091
:100CC000811534E5930708F0ECC0811542E59407DF
:100CD00008F5C11581E5D80708F0CFC02C2F237087
:100CE00081E090E002C0880F991F2A95E2F79C6886
:100CF0009E0174E0369527957A95E1F72370922B43
:100D0000CF70C695C69530E2C39FE0011124C82B71
:100D1000D92B27C1869586959E0123703327C1154F
:100D2000D34508F0AFC040E2849FC0011124C1E068
:100D3000D0E002C0CC0FDD1F2A95E2F78C2B9D2B53
:100D4000EC01DC680EC1811529E5920778F4811564
:100D500038E5930708F0AAC08115964508F0BAC097
:100D6000CF71DD27DC2FCC27D062FBC0C1158AE50F
:100D7000D80708F4A0C0CE0190568115904208F023
:100D8000A9C08D2F8F710E943208DD27D0628F712C
:100D9000D82BE7C0853A910509F49FC0863A9105A2
:100DA00009F09EC0C2E8D0E4DCC0883A910509F49D
:100DB0009AC0893A910509F499C08A3A910509F4D3
:100DC00098C08B3A910509F497C08C3A910509F4C3
:100DD00096C08B3B910509F495C08C3B910509F4B5
:100DE00094C08D3A910509F493C0803B910509F4B4
:100DF00092C08E3A910509F491C08F3A910509F499
:100E000090C0813B910509F48FC0823B910509F4A4
:100E10008EC0833B910509F48DC0843B910509F494
:100E20008CC0853B910509F48BC0863B910509F484
:100E30008AC0873B910509F489C0883B910509F474
:100E400088C0893B910509F487C08A3B910509F464
:100E500086C0C0E0D4E485C00E940A06EC0181C0CF
:100E6000CE019927D3FF03C0EC01D86C7AC0EC0106
:100E7000D06C77C0DF70D06A74C0DC2FCC27C16F14
:100E8000D06A6FC040E2849FC0011124C1E0D0E06D
:100E900002C0CC0FDD1F2A95E2F7C82BD92BDA68E8
:100EA00060C0D82FCC27C46FD06A5BC0D82FCC27A6
:100EB000C06FD06A56C08C2F8F70806E90E0906AA1
:100EC00024E0D695C7952A95E1F7CF709C013C2B7D
:100ED000E90147C0C0E0D0E044C0C1E8D0E441C06F
:100EE000C3E8D0E43EC0C2EED4E43BC0C9EED4E4D3
:100EF00038C0CAEED4E435C0C5EBD4E432C0C6EB8A
:100F0000D4E42FC0C3EBD4E42CC0C4EBD4E429C098
:100F1000C7EBD4E426C0CCECD4E423C0CDECD4E4BD
:100F200020C0C3E8D5E41DC0CAE8D5E41AC0C2E9B0
:100F3000D5E417C0C4E9D5E414C0C1E2D6E411C0B9
:100F4000C3E2D6E40EC0C4E2D6E40BC0C5E2D6E4E8
:100F500008C0C6E2D6E405C0C7E2D6E402C0CAE2D1
:100F6000D6E4CE01DF91CF9108958238910549F101
:100F7000B0F48133910509F458C048F489329105E1
:100F800009F44EC08A32910509F454C0089585339E
:100F9000910509F440C08933910599F00895833E85
:100FA000910529F138F4803E910591F0823E91053A
:100FB000A1F00895863E9105F9F0873E910531F143
:100FC00008952091E80620FD3AC021FD38C008951B
:100FD0008091E80680FD35C032C08091E80682FF2E
:100FE00032C08091E80684FD30C083EE39C0809124
:100FF000E80682FD28C0F5CF8091E80683FF27C070
:101000008091E80684FD21C087EE2AC08091E80621
:1010100083FD1DC0F5CF8091E80685FD1AC01BC079
:101020008091E80685FD17C014C08091E80686FD12
:1010300014C015C08091E80686FD11C00EC080EE78
:101040000FC089E30DC082EE0BC080E009C086EEC0
:1010500007C089E205C085E303C08AE201C081E3DD
:1010600090E008959091E80692FF0DC0282F287116
:10107000283019F4877F846006C0282F247124301B
:1010800011F48B7F886093FF0DC0282F28712831C1
:1010900019F4877E846106C0282F2471243111F44D
:1010A0008B7E886194FD877E089508950F931F932A
:1010B000CF93FB012281211102C0C1E041C08C010C
:1010C000C0919805C11125C086319C45B1F70E9499
:1010D000550881E0809398050E948D229093970592
:1010E0008093960510928B0510928D0510928C05B9
:1010F00010928F0510928E05109291051092900516
:1011000010929305109292051092950510929405F5
:1011100017C080919605909197050E9499228C3274
:10112000914058F690918B05E92FF0E0EE0FFF1FEC
:10113000E457FA4F118300839F5F90938B05C0E0C3
:101140008C2FCF911F910F910895089508950C94BD
:10115000A60885B7806885BF85B7806885BFA0E28F
:10116000B5E041E050E025E02A0F8D91E82FE295AF
:10117000EF70F0E031A18F70BA0102C0660F771FE7
:101180008A95E2F7CB01962F9095932391A392A194
:10119000892B82A32A13E9CFA4E1B5E041E050E016
:1011A0002CE02A0F8D91E82FE295EF70F0E031A14D
:1011B0008F70BA0102C0660F771F8A95E2F7CB01E4
:1011C000962F9095932391A392A1892B82A32A1302
:1011D000E9CFE3EAF5E0A9E9B5E0119211921D9299
:1011E0001D9275E0ED3AF707C1F70C943A042F927F
:1011F0003F925F926F927F928F929F92AF92BF9237
:10120000CF92DF92EF92FF920F931F93CF93DF93D2
:1012100020E2C22E25E0D22E09E915E0E801EE24F5
:10122000E394F12C662463945E018880998019828E
:101230001882D6018D916D01E82FE295EF70F0E0F4
:1012400021A18F70A70102C0440F551F8A95E2F7B4
:10125000CA01242B21A322A1742E7094272122A33A
:1012600050EA5A95F1F794E1292E95E0392E20E0C5
:1012700030E0D1017D911D01472F42954F7050E024
:10128000DA0190965C90488159817F70D70102C045
:10129000AA0FBB1F7A95E2F7BD01652141F4B701A2
:1012A000022E02C0660F771F0A94E2F702C060E0C8
:1012B00070E0462B572B598348832F5F3F4F2C30CC
:1012C0003105B9F691A1792271A292A1892B82A34D
:1012D0002296F501808191818816990641F06092ED
:1012E000AD050E948D229093AF058093AE05F5E089
:1012F000C33ADF0709F098CF8091AD058823B1F09C
:101300008091AE059091AF050E949922069770F0EA
:10131000E3EAF5E0D8018D919D918D018193919340
:10132000B5E0033A1B07B1F71092AD050E943E04E9
:1013300081E0DF91CF911F910F91FF90EF90DF90AF
:10134000CF90BF90AF909F908F907F906F905F9065
:101350003F902F900895E82FF0E0EE0FFF1FED551E
:10136000FA4F8081918108950895FB018D312CE51C
:10137000920731F482818823A1F10E947A0F2FC055
:101380008E312CE5920731F48281882351F10E943D
:101390008A0F25C08F312CE5920741F48281882382
:1013A00001F10E94760F8111F2CFE7CF88322CE550
:1013B000920731F482818823A1F00E94A30F08C014
:1013C00089329C4571F48281882359F00E94AC0FC8
:1013D00040E064E070E08CEC92E00E94790D80E0E7
:1013E000089581E00895682F70E065547109072E13
:1013F000000C880B990B0E942E3020E030E040E476
:1014000051E40E94842F9B01AC0160E070E080E019
:1014100090E40E94B23120E030E04CED53E40E94B1
:1014200045314FE050E00C94160F682F70E0655482
:101430007109072E000C880B990B0E942E3020E0BA
:1014400030E040E451E40E94842F9B01AC0160E055
:1014500070E080E090E40E94B23120E030E04CED9A
:1014600053E40E9445310C94740E0C94390E089587
:101470001F920F920FB60F9211244F925F926F92AC
:101480007F928F929F92AF92BF92CF92DF92EF9214
:10149000FF922F933F934F935F936F937F938F931D
:1014A0009F93AF93BF93CF93DF93EF93FF9380917D
:1014B000C305882309F4ABC1C0910506D091060687
:1014C0001C161D060CF0A3C14090B3055090B40546
:1014D0006090B5057090B60520E030E0A901C30129
:1014E000B2010E94403118160CF065C0C130D10520
:1014F00009F452C08091030690910406BE010E9437
:101500003D337C0190930406809303068090C505CB
:101510009090C605A090C705B090C80520E030E0C7
:1015200040E85FE3C501B4010E94132F6093C50535
:101530007093C6058093C7059093C805F701EE0F19
:10154000FF1FEE0FFF1FE752FA4FA30192016081C8
:101550007181828193810E94842F20E030E040E0FD
:101560005EE30E9445319B01AC01C501B4010E94BC
:10157000403118168CF4C7010196BE010E943D331C
:1015800090930406809303061092C5051092C60539
:101590001092C7051092C805E0910306F091040669
:1015A000EE0FFF1FEE0FFF1FE752FA4F60817181B0
:1015B00082819381E0C080912C032197882309F4D4
:1015C000BFC0C090FF05D0900006E0900106F090EB
:1015D000020620E030E0A901C701B6010E947F2F7A
:1015E000882309F4A2C0FE01EE0FFF1FEE0FFF1FBC
:1015F000E752FA4F80809180A280B380A5019401C8
:10160000C701B6010E947F2F87FF31C0A501940159
:1016100060E070E08CED93EC0E94842F20E030E0DD
:1016200040E451E40E94842F20E030E040E05FE39A
:101630000E9445319B01AC0160E070E080E090E4E5
:101640000E94B2319B01AC01C501B4010E94453139
:101650009B01AC01C701B6010E947F2F87FF07C025
:10166000A701960160E070E08CED93E439C0A5011C
:101670009401C701B6010E94403118160CF055C004
:10168000A501940160E070E08CED93E40E94842F4A
:1016900020E030E040E451E40E94842F20E030E07C
:1016A00040E05FE30E9445319B01AC0160E070E0E7
:1016B00080E090E40E94B2319B01AC01C501B4010D
:1016C0000E9445319B01AC01C701B6010E94403127
:1016D00018165CF5A701960160E070E08CED93ECC4
:1016E0000E94842F20E030E040E451E40E94842FE7
:1016F00020E030E040E05FE30E9445319B01AC0117
:1017000060E070E080E090E40E94B2319B01AC01A7
:10171000C701B6010E9445316093FF057093000632
:1017200080930106909302061EC0CC0FDD1FCC0FE4
:10173000DD1FC752DA4F88819981AA81BB810BC016
:10174000FE01EE0FFF1FEE0FFF1FE752FA4F8081E1
:101750009181A281B3818093FF0590930006A093AD
:101760000106B09302066091FF057091000680911A
:101770000106909102062091B0053091B1052F3FEE
:101780004FEF340731F02F5F3F4F3093B105209377
:10179000B0050E94B50F6B017C0120E034E244EFFC
:1017A00051E40E947F2F87FF08C086EFC82E88E291
:1017B000D82E84EFE82E81E4F82E20E030E040E0DF
:1017C00051E4C701B6010E9445319B01AC0160E0C4
:1017D00074E284E79BE40E94842F6B017C010E94E9
:1017E000FD2F709397006093960020912D03309108
:1017F0002E0340912F0350913003C701B6010E9480
:1018000045310E94FD2F709399006093980080915C
:10181000C405882309F446C1C090BF05D090C00517
:10182000E090C105F090C20520E030E0A901C701B9
:10183000B6010E9440311816D4F58091B005909100
:10184000B1058F3F2FEF920729F001969093B105D4
:101850008093B005C701B6010E94B50F20E030E0CB
:1018600040E051E40E9445319B01AC0160E074E22C
:1018700084E79BE40E94842F6B017C010E94FD2F72
:10188000709397006093960020912D0330912E0362
:1018900040912F0350913003C701B6010E9445319A
:1018A0000E94FD2F709399006093980008C01092D9
:1018B00097001092960010929900109298006091F3
:1018C000B9057091BA056F5F7F4F7093BA05609349
:1018D000B905209196003091970080E090E0232B8D
:1018E00071F12091B80521112AC0C0919600D091C4
:1018F00097000E942C306B017C01BE0180E090E0DB
:101900000E942C309B01AC016091BB057091BC051D
:101910008091BD059091BE050E94842F20E03FEF8D
:101920004FE757E40E94453120E030E040E85FE3B4
:101930000E94122F9B01AC01C701B6010AC00E9490
:101940002C302091BB053091BC054091BD055091D4
:10195000BE050E94403187FDA5C08091B7058F5F0D
:101960008093B70590E02091D8063091D906821770
:101970009307A0F08091DF06882319F01092B70535
:101980000DC0809171008D7F8093710080919000D7
:101990008F73809390001092C4058CC09091B8050D
:1019A0008091B705E091DA06F091DB06911137C01E
:1019B00091E09093B80581508093B70548E0849FEB
:1019C000E00DF11D1124C080D180E280F3802085DC
:1019D000318542855385C701B6010E947F2F811151
:1019E00009C01092BF051092C0051092C105109257
:1019F000C20508C0C092BF05D092C005E092C105E3
:101A0000F092C20580E090E0A0E8BFE38093BB05C0
:101A10009093BC05A093BD05B093BE053FC0109246
:101A2000B8051092B1051092B00598E0899FE00DBD
:101A3000F11D112480819181A281B3818093BF0522
:101A40009093C005A093C105B093C20520E030E09B
:101A500040E85EE364817581868197810E9445310B
:101A60006B017C0180913103682F70E080E090E091
:101A70000E942C3020E030E048EC52E40E94842F99
:101A80009B01AC01C701B6010E9445316093BB05C3
:101A90007093BC058093BD059093BE051092BA0566
:101AA0001092B9058091DC0680FD04C01092C40537
:101AB0001092C305FF91EF91DF91CF91BF91AF914C
:101AC0009F918F917F916F915F914F913F912F9156
:101AD000FF90EF90DF90CF90BF90AF909F908F904E
:101AE0007F906F905F904F900F900FBE0F901F9060
:101AF0001895CF92DF92EF92FF92CF93DF93EC0194
:101B00006B01F42E8091B205811102C00E94F60D86
:101B10008091DC0680FF63C0809171008D7F80938F
:101B200071008091C30581110E94390E81E080937C
:101B3000C405D093DB06C093DA06D092D906C092D2
:101B4000D806F092DF061092C5051092C6051092D5
:101B5000C7051092C8051092B70588819981AA819E
:101B6000BB818093BF059093C005A093C105B0933E
:101B7000C20520E030E040E85EE36C817D818E812B
:101B80009F810E9445316B017C0180913103682F58
:101B900070E080E090E00E942C3020E030E048ECE3
:101BA00052E40E94842F9B01AC01C701B6010E9440
:101BB00045316093BB057093BC058093BD05909340
:101BC000BE051092BA051092B9058091710082602D
:101BD0008093710080919000806880939000DF91E5
:101BE000CF91FF90EF90DF90CF9008950E94A921B0
:101BF000811102C00E948A210E94CA218093DC06C2
:101C00008091B205811129C03E9A809171008D7F2B
:101C10008093710082E0809390008AE1809391002C
:101C200081EC91E1909397008093960023EA3BE04A
:101C30004EE855E460912D0370912E0380912F039F
:101C4000909130030E9445310E94FD2F70939900BE
:101C50006093980081E08093B2058091DC0680FF5C
:101C600007C040E064E070E08CE093E00C94790DF4
:101C700008958091B205811102C00E94F60D109264
:101C8000060610920506809171008D7F8093710089
:101C9000809190008F73809390001092C4051092F1
:101CA000C3051092FF0510920006109201061092D3
:101CB00002061092FB051092FC051092FD05109291
:101CC000FE051092FA051092F905E9EDF5E0A9EC90
:101CD000B5E011921192119211921D921D9285E020
:101CE000E93FF807B1F70895CF92DF92EF92FF92A4
:101CF0000F931F93CF93DF932091C305222309F401
:101D00008CC06B017C018091B205811102C00E94E0
:101D1000F60D09EF15E0C7E0D0E0A7019601F80144
:101D200092918291729162918F010E947F2F811115
:101D300031C0FE01EE0FFF1FEE0FFF1FE752FA4FFB
:101D40001082118212821382DE01AA0FBB1FA753D9
:101D5000BA4F11961C921E92C730D105E9F0219618
:101D60004481558166817781408351836283738387
:101D7000148215821682178212968D919C91139768
:101D800011969C938E9313961C921E9212973496E2
:101D90001296E2CF219708F68091050690910606EB
:101DA000019797FD05C0909306068093050604C031
:101DB000109206061092050680910506909106067F
:101DC00020910306309104062817390724F0109259
:101DD000040610920306892B01F5809171008D7F16
:101DE00080937100809190008F7380939000109287
:101DF000FF05109200061092010610920206109242
:101E0000FB051092FC051092FD051092FE05109244
:101E1000FA051092F9051092C305DF91CF911F9139
:101E20000F91FF90EF90DF90CF900895CF92DF92C7
:101E3000EF92FF92CF93DF936B017C01EA018091D7
:101E4000B205811102C00E94F60D8091DC0680FF70
:101E500046C0809105069091060608970CF03FC099
:101E6000809171008D7F809371008091C4058111F4
:101E70000E94390E81E08093C3051092B105109243
:101E8000B00520E030E0A901C701B6010E94403151
:101E90001816DCF48091050690910606FC01EE0F01
:101EA000FF1FEE0FFF1FE752FA4FC082D182E2827E
:101EB000F382FC01EE0FFF1FE753FA4FD183C0837B
:101EC00001969093060680930506809171008260CA
:101ED0008093710080919000806880939000DF91E2
:101EE000CF91FF90EF90DF90CF9008958091DC0626
:101EF000817008958091DC0681608093DC060E94E9
:101F0000CE210E94370A40E062E070E08CEF92E060
:101F10000C94790D40E062E070E08CEE92E00E945B
:101F2000790D2FEF81EE94E0215080409040E1F751
:101F300000C000000E94390E8091DC068E7F8093E5
:101F4000DC060C94CE218091070690E00196877004
:101F500099278093070608958091070690E00796D9
:101F6000877099278093070608958F929F92AF926A
:101F7000BF92CF92DF92EF92FF92CF93DF936B01EC
:101F80007C01C091B005D091B105BE0180E090E028
:101F90000E942C304B015C01A701960160E070E0CB
:101FA0008CE594E40E94842F9B01AC01C501B4012F
:101FB0000E9445310E94FD2F9B01E09107068E2E65
:101FC000912C48E08416910408F044C2F401ED58C5
:101FD000FF4F0C94513310922C0380E090E0A0E06E
:101FE000BFE380932D0390932E03A0932F03B09310
:101FF00030031092B3051092B4051092B5051092FB
:10200000B60528C210922C031092B3051092B405A5
:102010001092B5051092B6056431710528F46A3046
:10202000710508F449C104C0693C710508F044C158
:1020300080E090E0A0E8BEE373C010922C03109201
:10204000B3051092B4051092B5051092B60520E0C4
:1020500030E040EA52E4C701B6010E947F2F87FDBD
:10206000F9C120E030E040E253E4C701B6010E942C
:102070007F2F87FF2FC00E94A33368E270E00E9489
:102080003D33BC01645C7F4F072E000C880B990B1D
:102090000E942E306B017C018091B0059091B105BA
:1020A0008B309105C8F18531910508F080C165E15B
:1020B00070E0681B790B80E090E00E942C3020E0FB
:1020C00030E040E05FE30E94453120E030E040E254
:1020D00051E4A8C020E030E040EA53E4C701B60173
:1020E0000E947F2F87FF2CC00E94A33368EE73E00D
:1020F0000E943D33BC0168517C4F072E000C880BB9
:10210000990B0E942E306B017C018091B00590915B
:10211000B1058630910568F480E090E0A0E0BFE36F
:1021200080932D0390932E03A0932F03B09330033D
:1021300091C18531910508F03AC165E170E062C056
:1021400020E030E040E254E4C701B6010E947F2F56
:1021500087FF2FC00E94A33360ED77E00E943D33DC
:10216000BC016854744F072E000C880B990B0E9419
:102170002E306B017C018091B0059091B1058031CA
:10218000910550F28531910508F011C165E170E0CB
:10219000681B790B80E090E00E942C3020E030E05A
:1021A00040E05FE30E94453120E030E040EA50E447
:1021B00039C020E030E040EA54E4C701B6010E9493
:1021C0007F2F87FF47C10E94A33360ED77E00E9415
:1021D0003D33BC016854744F072E000C880B990BDB
:1021E0000E942E306B017C018091B0059091B10569
:1021F0008432910508F490CF8333910508F0D7C05D
:1022000063E370E0681B790B80E090E00E942C3063
:1022100020E030E040E05FE30E94453120E030E024
:1022200040E751E40E94842F7CC041E040932C039E
:102230001092B3051092B4051092B5051092B60530
:102240006431710540F46A30710560F520E030E0DA
:1022500040E85EE32BC0693C710508F0A8C080E04F
:1022600090E00E942C3020E030E040EA51E40E94EF
:10227000122F20E030E044E353E40E94842F9B01BE
:10228000AC010E94453120E030E040E05EE30E9476
:1022900045319B01AC0160E070E080E09EE30E946C
:1022A000122F3FC020E030E040E05FE3C701B601FD
:1022B0000E9445316B017C0180E090E0A0E0BEE32C
:1022C0002FCF21E020932C031092B3051092B40578
:1022D0001092B5051092B6054AE0469F9001479FBF
:1022E000300D1124C90168EB7BE00E942933BC0149
:1022F0006C5D754077FF03C0719561957109072E7C
:10230000000C880B990B0E942E302EE333EC4EE22A
:1023100059E30E94453120E030E040EC5EE30E944A
:10232000132F60932D0370932E0380932F039093AC
:10233000300390C081E080932C031092B30510927B
:10234000B4051092B5051092B605CE018370992799
:10235000892BE1F0BE016170772780E090E00E9458
:102360002C3020E030E040E05EE30E94453120E088
:1023700030E040E45FE30E94132F60932D037093DD
:102380002E0380932F03909330030CC080E090E0E5
:10239000A0E0BFE380932D0390932E03A0932F031F
:1023A000B0933003C770DD27CD2B09F053C01092D6
:1023B0002D0310922E0310922F03109230034AC067
:1023C00041E040932C031092B3051092B405109293
:1023D000B5051092B605812C912CA12C9FE3B92E46
:1023E00080922D0390922E03A0922F03B09230037F
:1023F0002739310578F180E090E00E942C3020E010
:1024000030E047E153E40E94122F20E030E04AE739
:1024100054E40E94842F20E030E048E452E40E941B
:10242000453120E030E040EA51E40E9474300E94DF
:10243000F62F660F771F660F771FFB01EB5DFA4FD4
:102440002081318142815381C701B6010E9445310B
:102450006B017C01C701B601DF91CF91FF90EF9036
:10246000DF90CF90BF90AF909F908F90089520E81D
:10247000482F60E08AEE96E00C94662320E0482F17
:1024800060E08AEE96E00C94762320E04BE760E073
:102490008AEE96E00C94562384E08093E00689E06F
:1024A0008093E1068091E206807F88608093E20657
:1024B000ECE0F6E09FEF88E48E0F91938E13FDCF52
:1024C00010920B0610920A06109209061092080646
:1024D00008952091E006922F95959595959595955F
:1024E0009D522F703CE0239F900D1124890F089579
:1024F000FF920F931F93CF93DF9300D0CDB7DEB73A
:10250000FB018C3A2CE5920708F044C08C393CE57D
:10251000930708F042C18E382CE59207F0F4813819
:102520003CE5930708F0D0C08F372CE5920758F4AC
:1025300085373CE5930708F09AC08D322CE5920769
:1025400008F065C0C9C18F373CE5930709F499C00D
:1025500080389C4509F4A8C0BFC18A393CE593077F
:1025600078F480392CE5920708F0F4C08E383CE509
:10257000930709F4B3C08F389C4509F4C4C0ACC1BB
:102580008A393CE5930709F4EEC08B399C4509F480
:10259000F9C0A2C1823B3CE5930709F43EC1D8F4DF
:1025A0008E3A3CE5930709F41BC150F48C3A3CE5A4
:1025B000930709F4FDC08D3A9C4509F403C18CC111
:1025C0006091E1062281803B3CE5930709F419C143
:1025D00008F411C11CC1853B2CE5920709F436C1F2
:1025E00050F4833B2CE5920709F417C1843B9C45CA
:1025F00009F423C171C1873B2CE5920709F44CC152
:1026000008F439C1883B9C4509F457C165C1209144
:10261000E106622F62956F70322F3F702CE0239F8E
:10262000200D1124F28003ED080F10E0FF2089F047
:102630002A8369830E946912F82E2A81482F6981B2
:102640008AEE96E00E946623F801E45FF94FF0827B
:1026500041C1045F194FF80140814F3F21F08AEEDC
:1026600096E00E9476238FEFF801808337C12281A4
:10267000222309F42FC185578F709091E006907F37
:102680000FC08281882309F425C12091E006822FA2
:102690008F7009F41FC1815F982F9F70822F807FF8
:1026A000892B8093E00616C18281882309F412C128
:1026B0002091E006822F8F70482F50E0493051055D
:1026C0000CF008C18F5FE8CF2281222309F402C1F8
:1026D00087588295807F9091E0063AC08281882356
:1026E00009F4F8C02091E006822F8595859585959F
:1026F00085958B3F0CF4EEC0815F982F9295907F6B
:10270000822F8F70CDCF8281882309F4E3C020917E
:10271000E006822F859585958595859586300CF008
:10272000D9C091E0980F9295907F95959595959544
:102730009595392F3295307F2F70232B2093E0060B
:1027400018160CF0C7C097FFC5C08295807F922FE6
:102750009F70A6CF2281222309F4BCC08F70909174
:10276000E106907F39C08281882309F4B3C02091AB
:10277000E106822F8F7009F4ADC0815F982F9F70A2
:10278000822F09C08281882309F4A4C08091E106C8
:1027900091E0980F9F70807F1FC02281222309F44F
:1027A00099C08C598295807F9091E1069F7014C0EA
:1027B0008281882309F48EC08091E106982F907F52
:1027C000905109C08281882309F484C08091E10678
:1027D000982F907F905F8F70892B8093E1067AC04D
:1027E0008281882309F476C06091E10662956F705A
:1027F00020E04BE71DC021112FE762956F7040E488
:1028000017C021112FE762956F7041E411C02111AB
:102810002FE762956F7042E40BC08281811102C084
:1028200020E001C02FE76091E10662956F7043E4FC
:102830008AEE96E00E9456234DC08281811102C02B
:102840008FEF01C081E080930A0644C08281882313
:1028500009F440C08091E206282F2F7091E0920F7A
:102860009F70807F892B8093E206982F9F7091F54F
:10287000807F822B0EC08281882361F12091E20645
:10288000822F8F7039F1815F982F9F70822F807F08
:10289000892B8093E2061EC08281882339F06091E3
:1028A000E10662956F7040E050EE10C06091E10665
:1028B00062956F7040E050E009C082818823B1F3D7
:1028C0006091E10662956F704FEF5FE18AEE96E0EE
:1028D0000E948623F12C02C0FF24F3948F2D0F90C9
:1028E0000F90DF91CF911F910F91FF9008958AEE85
:1028F00096E00E949F2580910806909109060E940B
:1029000099222091E2062F7030E08217930778F128
:102910000E948D22909309068093080680910A06F2
:10292000882329F16091E10662956F7020910B0672
:1029300041E08AEE96E00E94562390910A0680912B
:102940000B0697FF0FC0282F30E0692F772761957E
:102950000CF47095261737072CF410920B06109282
:102960000A060895890F87FD8FE780930B06089567
:10297000CF93C82F80916C06882319F08C2F0E946A
:10298000F30980916B06882321F08C2FCF910C9452
:102990003712CF910895CF93C82F80916C0688236A
:1029A00019F08C2F0E94150A80916B06882321F064
:1029B0008C2FCF910C943E12CF91089580916C068C
:1029C00081110E94350A80916B0681110C94451289
:1029D00008950E94DE1410926C0640E068E070E0FA
:1029E00082EB93E00C94790D0E94451210926B06D5
:1029F00040E068E070E082E393E00C94790D0E947F
:102A0000DE142091D40430E02F5F3F4F2370332732
:102A10002093D40448E2429FC001439F900D1124AB
:102A200040E065E070E08E5C9B4F0C94790DCF9395
:102A3000809168068823D1F18091540690915506C3
:102A4000009779F40E948D22909355068093540646
:102A50008091560690E0009771F42091570630E07F
:102A60000BC00E9499222091D2043091D3042817E0
:102A7000390740F31BC09C0121503109FC01E85A81
:102A8000F94FC081F901E85AF94F80810E94CB14B7
:102A90008C2F0E94B8148091560690E001966091A8
:102AA000570670E00E943D3380935606CF910895FB
:102AB000089581E080936C0640E068E070E082EF6A
:102AC00093E00E94790D0C945815089581E080934D
:102AD0006B0640E068E070E082E793E00E94790DC9
:102AE0000C946515EF92FF921F93CF93DF93CDB7B0
:102AF000DEB7A3970FB6F894DEBF0FBECDBF7C0143
:102B000084322CE5920741F4FB018281882309F489
:102B100048C00E94591598C08532FCE59F0739F4DA
:102B2000FB0182818823E9F10E94E9148DC086327D
:102B3000FCE59F0749F4FB018281882391F1809194
:102B40006C068111F1CFE5CF8A32FCE59F0739F49D
:102B5000FB018281882329F10E94661575C08B32A2
:102B6000FCE59F0739F4FB0182818823D1F00E94A4
:102B7000F4146AC08C32FCE59F0749F4FB018281A2
:102B8000882379F080916B068111F1CFE5CF8732F0
:102B90009C4539F4FB018281882319F00E94FF14BF
:102BA00053C080916C06811105C080916B0688230B
:102BB00009F4CAC0FB014281442309F451C0F0EE7C
:102BC000EF16F10461F40E94DE1481E080936A063E
:102BD00010926906109268061092570635C022EED0
:102BE000E216F10471F40E94DE1480916A068823D3
:102BF00019F081E08093690610926A0610926806C7
:102C000023C033EEE316F10491F480916906882322
:102C100039F10E94DE1410926A0681E08093680602
:102C20001092560610925506109254060DC082E579
:102C3000E816F10459F48091D2049091D3040A97D4
:102C40009093D3048093D20480E07FC0E1E5EE1638
:102C5000F10431F48091D2049091D3040A96F0CF1C
:102C60008091D4041091D704811108C0FB01208108
:102C7000120F13508091D504180F43C0813091F486
:102C8000FB012081120F105E2091D504120F81816B
:102C900025E030E0281B3109822F880F880F280F8C
:102CA000120F38C0823071F4FB012081120F105EC8
:102CB0009091D504190F218185E090E0821B910944
:102CC000F7E025C0833031F583E2E1EFF4E0DE0187
:102CD000119601900D928A95E1F71350FB018081C6
:102CE00021E030E02C0F3D1F280F311DC90120913C
:102CF000D5043091D604FC01E20FF31F2081120F9E
:102D0000FB01218185E090E0821B9109FCE08F9F0F
:102D1000100D1124812F442389F00E94B814809152
:102D20006A06882369F080915706E82FF0E0E85A98
:102D3000F94F10838F5F8093570602C00E94CB1417
:102D400081E0EF2811F080CF81E0A3960FB6F894D0
:102D5000DEBF0FBECDBFDF91CF911F91FF90EF90EF
:102D6000089590937206809371060895E09171061C
:102D7000F0917206309721F00190F081E02D0994D6
:102D800080E00895E0917106F0917206309721F08D
:102D90000280F381E02D0994089520916F0630910F
:102DA00070068217930771F09093700680936F06F8
:102DB000E0917106F0917206309721F00680F7815C
:102DC000E02D0994089520916D0630916E068217CA
:102DD000930771F090936E0680936D06E0917106F3
:102DE000F0917206309721F00084F185E02D09946E
:102DF000089508950C94F91681E008950E948422A4
:102E00000E94A9080C940D234F925F927F928F929B
:102E10009F92AF92BF92CF92DF92EF92FF920F9369
:102E20001F93CF93DF93CDB7DEB72A970FB6F894F1
:102E3000DEBF0FBECDBF0E94F7080E94FC168111B5
:102E400011C08FEF89838A831B820E948D2281604B
:102E5000782F9D838C8349815A816B818D810E945B
:102E6000C21757C094E7C92E96E0D92E00E010E0B3
:102E7000AA24A394B12C702E802F0E94AB094C0180
:102E8000F601419051906F01482659264114510492
:102E900031F40F5F1F4F0530110569F7D2CF8091D4
:102EA000CB0681FD0E94B40920E030E07501022EBE
:102EB00002C0EE0CFF1C0A94E2F7C70184219521A1
:102EC000892B09F12E837F828E209F2091E0892813
:102ED00009F490E098870E948D228160782F9A876C
:102EE00089874E815F8168858A850E94C217000F9D
:102EF000111FF801EC58F94F80819181E826F926DD
:102F0000F182E08206C02F5F3F4F2C30310571F611
:102F1000C0CF0E947714109173060E94B61618173E
:102F2000D9F00E94B616809373062A960FB6F894CD
:102F3000DEBF0FBECDBFDF91CF911F910F91FF90EC
:102F4000EF90DF90CF90BF90AF909F908F907F9049
:102F50005F904F900C9445042A960FB6F894DEBF0C
:102F60000FBECDBFDF91CF911F910F91FF90EF90DA
:102F7000DF90CF90BF90AF909F908F907F905F90A9
:102F80004F900895CF93DF93CDB7DEB72B970FB651
:102F9000F894DEBF0FBECDBF4F83588769877A870D
:102FA0008B87DE01119686E0FD0111928A95E9F783
:102FB00085E0FE01379601900D928A95E1F74981EF
:102FC0005A816B817C818D819E810E946E1E2B9621
:102FD0000FB6F894DEBF0FBECDBFDF91CF9108953D
:102FE000FC01808191810E94DB200895882309F4EF
:102FF000F3C0682F8238C1F40E94B61681FDECC080
:1030000069E38091D8049091D9040E9406220E941D
:103010001B212FEF81EE94E0215080409040E1F79A
:1030200000C0000069E319C08338F9F40E94B616A5
:1030300080FDD2C063E58091D8049091D9040E94AC
:1030400006220E941B212FEF81EE94E02150804048
:103050009040E1F700C0000063E58091D8049091B2
:10306000D9040E9408220C941B218438C1F40E94C8
:10307000B61682FDB1C067E48091D8049091D9045E
:103080000E9406220E941B212FEF81EE94E0215026
:1030900080409040E1F700C0000067E4DECF8CEF95
:1030A000860F813A38F48091D8049091D9040E9417
:1030B0000622D9CF80E2860F883048F4677081E01D
:1030C00001C0880F6A95EAF70E945121CCCF8BE5A9
:1030D000860F833070F4653A29F0663A31F083E860
:1030E00090E005C081E890E002C082E890E00C9496
:1030F000CD1688E5860F853108F06EC0683A61F11B
:10310000693A69F16A3A71F16B3A79F16C3A81F195
:103110006B3B89F16C3B91F16D3A99F1603BA1F108
:103120006E3AA9F16F3AB1F1613BB9F1623BC1F17D
:10313000633BC9F1643BD1F1653BD9F1663BE1F1F9
:10314000673BE9F1683BF1F1693BF9F16A3B09F44E
:103150003FC080E090E03EC082EE90E03BC089EE50
:1031600090E038C08AEE90E035C085EB90E032C048
:1031700086EB90E02FC083EB90E02CC084EB90E0D6
:1031800029C087EB90E026C08CEC90E023C08DEC4A
:1031900090E020C083E891E01DC08AE891E01AC069
:1031A00082E991E017C084E991E014C081E292E0E5
:1031B00011C083E292E00EC084E292E00BC085E28F
:1031C00092E008C086E292E005C087E292E002C089
:1031D0008AE292E00C94E3160895882309F45BC018
:1031E000682F823879F40E94B61681FF54C069E3D3
:1031F0008091D8049091D9040E9406220E941B213C
:1032000069E310C08338B1F40E94B61680FF43C052
:1032100063E58091D8049091D9040E9406220E940F
:103220001B2163E58091D8049091D9040E94082263
:103230000C941B21843879F40E94B61682FF2BC0AF
:1032400067E48091D8049091D9040E9406220E94DC
:103250001B2167E4E7CF8CEF860F813A18F380E2F9
:10326000860F883048F4677081E001C0880F6A9546
:10327000EAF70E945721DCCF8BE5860F833020F4DC
:1032800080E090E00C94CD16685A653120F480E01F
:1032900090E00C94E3160895882321F00E945121B8
:1032A0000C941B210895882321F00E9457210C942F
:1032B0001B2108954F925F926F927F92BF92CF929F
:1032C000DF92EF92FF920F931F93CF93DF937C01D6
:1032D000D62FC72FFC01058102950F7012811111A5
:1032E0000E946E210E941421882379F0112369F035
:1032F00080E28D0F883048F082E00E94FD200E941D
:10330000142191E0B82EB92601C0B12CCC2EC29464
:103310008FE0C822D12CF601E558FF4F0C945133B1
:103320008C2F807FCF70882311F0C295C07F11232E
:1033300099F0CC2309F48DC180E28D0F883010F014
:10334000D11104C08C2F0E94512103C08C2F0E94E8
:1033500061210E941B217DC18D2F0E94ED18CC237D
:1033600009F49CC180E28D0F883010F0D11104C0A7
:103370008C2F0E94572103C08C2F0E9467210E942E
:103380001B218CC18C2F807FCF70803211F0C295B1
:10339000C07FDD2319F0D130C9F022C0112371F0B4
:1033A000002341F0013031F40E9487218C2B0E94D0
:1033B000812174C10E9487218C2B04C1002319F044
:1033C000013009F46BC10E94842118C0112321F03F
:1033D000063008F063C10EC0053008F05FC10EC0B2
:1033E000112351F0002331F0F701858180FF31C1B5
:1033F0008F7085838C2FE6C001113CC18C2FE8C0F3
:103400008C2F86958695837090E0009719F0019730
:1034100061F044C1112321F08D2F9C2F937002C0C5
:1034200080E090E00E94CD1649C1112321F08D2F3C
:103430009C2F937002C080E090E00E94E3163EC192
:103440008C2F837009F050C0111134C18D2F8295DB
:1034500086958770880F880F9D2F9F70492E512C5D
:10346000612C712C082E04C0440C551C661C771C62
:103470000A94D2F7D4FF14C00FE010E020E030E04F
:10348000B901A80104C0440F551F661F771F8A9514
:10349000D2F7CB01BA01609570958095909503C0E5
:1034A00060E070E0CB01C695C695C370D0E0C23035
:1034B000D10561F0C330D10581F0642975298629D1
:1034C0009729219771F00E94B11FF4C064297529D2
:1034D000862997290E94C31FEDC00E94B11FC30116
:1034E000B2010E949F1FE6C0112319F08C2F81703A
:1034F00001C08695882309F4DDC08D2F82958695BD
:103500008770880F880F9D2F9F70492E512C612C3A
:10351000712C082E04C0440C551C661C771C0A94A0
:10352000D2F7D4FF14C00FE010E020E030E0B90182
:10353000A80104C0440F551F661F771F8A95D2F754
:10354000CB01BA01609570958095909503C060E0BD
:1035500070E0CB01C695C695C3704C2F50E0423049
:10356000510569F04330510589F064297529862990
:1035700097294130510571F00E9477209BC0642942
:103580007529862997290E94892094C00E94772056
:10359000C301B2010E9465208DC08D2F90E0FC0117
:1035A000E05EF109E531F10508F04FC0E557FF4F46
:1035B0000C945133DF708C2F8F71112331F00E94E6
:1035C000FE1F8D2F0E944C1969C00E941F208D2F55
:1035D0000E94531963C0112341F0053008F05EC00A
:1035E0008C2F8F710E94442059C0063008F056C0BD
:1035F000F7CF112339F08C2F8F710E94FE1F4EC020
:103600001123C9F38C2F8F710E941F2047C01123F3
:1036100029F08C2F8F710E94E91F40C00E94E41F87
:103620003DC0112349F0CF718C2F0E94FE1F63E033
:103630008C2F0E94F42032C081E00E94FD200230D5
:1036400068F182E00E94FD2029C0112331F000239F
:1036500091F28D2F0E94F61721C0002399F2D933E1
:1036600049F45FEF67EE73E0515060407040E1F75E
:1036700000C000008D2F0E94ED1810C04C2F4F701D
:103680006D2FC7010E94F4050E94121F17C04C2F16
:103690004F706D2FC7010E94F70510C088E0C81653
:1036A000D10441F05CF0EAE0CE1AD108F2E0CF1686
:1036B000D10420F40E94B6160E944504BB20F1F00C
:1036C0000E94F02080FD1AC0F70112820E94EA20B9
:1036D0000E94FE1FC7010E948C1B0E94EA20DF91FE
:1036E000CF911F910F91FF90EF90DF90CF90BF90FF
:1036F0007F906F905F904F900C941F20DF91CF913F
:103700001F910F91FF90EF90DF90CF90BF907F902F
:103710006F905F904F9008950F931F93CF93DF9317
:10372000EC01888199812B813C81232BB9F09F3F4B
:1037300011F48F3F99F0CE010E946F04882371F03D
:10374000688179818A810E94E6208C010E949B20F9
:103750000E949C1FB801CE010E945A19DF91CF919F
:103760001F910F9108950E946E210E947E218091E9
:10377000D8049091D9040E940A220E941B2180E063
:1037800090E00E94CD1680E090E00C94E3160E9439
:103790005E210C94B31B0E94DB20E92FE295EF70B1
:1037A000F0E03297EE30F105B0F4E056FF4F0C94A4
:1037B0005133803F91F018F4803E68F40EC0843F8E
:1037C00051F40BC0803E48F0813F29F406C093FBC2
:1037D000882780F9089580E0089581E00895CF93C7
:1037E000DF9300D000D01F92CDB7DEB70F900F90BF
:1037F0000F900F900F90DF91CF910895CF93DF93AB
:1038000000D000D000D0CDB7DEB726960FB6F89422
:10381000DEBF0FBECDBFDF91CF9108951F93CF9331
:10382000DF93C0917E0616E080917F06C81799F05D
:10383000D0E01C9FF0011D9FF00D1124E058F94FBE
:103840004081518162817381848195810E94FE1B38
:103850002196C770E9CFDF91CF911F9108954091D4
:10386000B0065091B1066091B2067091B306809196
:10387000B4069091B5060C94FE1B8091B506829516
:103880008F7009F054C08091B206882309F44FC0AC
:1038900080917E06A0917F066091B0067091B1067E
:1038A0004091B3065091B406B6E08A1709F43FC0C0
:1038B00090E041155105C1F17F3F11F46F3FA1F137
:1038C000B89FF001B99FF00D1124E058F94F218104
:1038D00072132AC02081621327C02281211124C0C3
:1038E000238134812417350710F421503109241B1A
:1038F000350B283C3105C0F42091B5062F702061AE
:103900002093B50626E0289FF001299FF00D112491
:10391000EB57F94F80818F708061808380EB96E058
:103920000E948C1B0C940E1C01968770BECF0895CC
:10393000CF92DF92EF92FF920F931F93CF93DF937B
:10394000CDB7DEB762970FB6F894DEBF0FBECDBF1E
:103950008C0185E0F801DE011D9601900D928A959B
:10396000E1F7D8014C9111965C91119712966C91E8
:1039700012971396CD90DC9014973091B006709109
:10398000B1068091B3069091B406009709F46BC11B
:103990007F3F19F43F3F09F466C1E090B206EE2084
:1039A00009F4C0C02091B506C816D90628F0F60162
:1039B000E81BF90BCF0104C0809590958C0D9D1DDF
:1039C000FF24F394883C910578F0F12C207F09F0D6
:1039D000C6C07C2DD98AC88A89890E94EF1B80EBDA
:1039E00096E00E948C1BB1C0822F807F09F046C0F8
:1039F000751314C0341312C0611110C02F702061F0
:103A00002093B5060E942F1C80EB96E00E948C1B31
:103A10008091B506D80115968C932EC0CD2819F14A
:103A20005F3F11F44F3FF9F0F62E61111CC08091F9
:103A30007E0620917F0636E0821709F45AC090E096
:103A4000389FF001399FF00D1124E058F94F718132
:103A5000571306C07081471303C07281711103C0F0
:103A600001968770E9CFF62E662309F427C180916D
:103A7000B50681608093B506F12C20C1751308C08E
:103A8000341306C0611104C08091B506D801C3C0CB
:103A90004D875E878D859E856A8B0E94CB1B6A89C8
:103AA0008823E1F16623D1F12091B506822F82951A
:103AB0008F7090E0029774F08091B0069091B106FB
:103AC00098878F831986DB86CA862C87CE01079656
:103AD0000E948C1B86E0F801A0EBB6E001900D92ED
:103AE0008A95E1F70E943D1C0E942F1CFF24F3944D
:103AF000E5C04D875E878D859E850E94DB20292F3E
:103B000022952F7030E0223031050CF0CBC09F7031
:103B100009F0C5C0805E883008F4D0C0C8010E949A
:103B20008C1BE4CFC816D90608F453C0F601E81B75
:103B3000F90BCF01883C910508F450C0F12C7C2D85
:103B4000D98AC88A89890E94EF1BE0EBF6E086E0FB
:103B5000DF011D928A95E9F70E942F1CAFC07513F3
:103B600014C0341312C0611110C08091B506F80161
:103B70008583C8010E948C1B86E0E0EBF6E0DF0144
:103B80001D928A95E9F7FE2C99C04D875E878D8539
:103B90009E856A8B0E94CB1B6A89882309F4BECF5D
:103BA000662309F4BBCF2091B506822F82958F70D2
:103BB00090E002970CF48ECF8091B0069091B10600
:103BC0009A8389831B82DD82CC822E83CE0101966B
:103BD0007FCF809590958C0D9D1DACCFF62E6623E2
:103BE00009F49CCF75132EC034132CC02091B50658
:103BF00020FD1FC0822F82958F70D9F0D8011596B5
:103C00002C9315978F3049F08F5F982F9295907F66
:103C1000822F8F70892B15968C93C8010E948C1B64
:103C200086E0F801A0EBB6E001900D928A95E1F7ED
:103C300093CF86E0F801A0EBB6E001900D928A9553
:103C4000E1F73CC04D875E878D859E850E94CB1B2A
:103C5000811140CF8091B50681608093B506C8017F
:103C60000E948C1B2BC0662309F458CF4D875E87BA
:103C70008D859E850E94CB1BF82E882309F44ECF9C
:103C800086E0F801A0EBB6E001900D928A95E1F78D
:103C900080EB96E00E94F0170E943D1C5DCF8111E1
:103CA00039CF0CC0243031050CF038CF9F7009F4A7
:103CB00031CFF8019581907F09F02CCF8F2D62963E
:103CC0000FB6F894DEBF0FBECDBFDF91CF911F912D
:103CD0000F91FF90EF90DF90CF9008951F93CF93B7
:103CE000DF93CDB7DEB72C970FB6F894DEBF0FBECB
:103CF000CDBF4F83588769877A878B879C87CE0192
:103D000007960E94981C882369F08F8198852A85E0
:103D10003B85232BF1F19F3F09F063C08F3F09F0F2
:103D200060C037C086E0FE013796DE011196019033
:103D30000D928A95E1F76F817885EA85FB8530974A
:103D400041F17F3F11F46F3F21F120917F0630E078
:103D5000C90101968770992740917E0650E084172B
:103D6000950709F447C069837A83FD83EC8396E065
:103D7000929FD001939FB00D1124A058B94FFE011E
:103D8000319601900D929A95E1F780937F060E94FB
:103D90000E1C16E080917E0690917F068917C1F176
:103DA000189FC00111248058994F0E94981C8823A5
:103DB00079F1E0917E061E9FF0011124E058F94F41
:103DC0004081518162817381848195810E94FE1BB3
:103DD00080917E0690E001968770992780937E06F9
:103DE000D9CF4F81588569857A858B859C850E94BE
:103DF000FE1BCFCF0E94C71B10927F0610927E063B
:103E0000E0EBF6E086E0DF011D928A95E9F7C1CF8D
:103E10002C960FB6F894DEBF0FBECDBFDF91CF91C9
:103E20001F910895EF92FF920F931F93CF93DF930B
:103E30008C01892B09F46CC0F12CEE24E394E80189
:103E40002196F8018491843740F4843008F051C001
:103E5000813081F0823019F15BC0853709F444C0AC
:103E6000A8F19CE7980F903708F052C08F770E9416
:103E7000ED1841C00E5F1F4FFE01C49180E28C0F10
:103E8000883048F4C7708E2D01C0880FCA95EAF7B4
:103E90000E94712114C08C2F0E94F6172DC00E5F56
:103EA0001F4FFE01C49180E28C0F883058F4C77018
:103EB0008E2D01C0880FCA95EAF70E9477210E94D3
:103EC0001B211AC08C2F0E94ED1816C00E5F1F4FC9
:103ED000FE01C491CC2381F08FE99FE00197F1F7B7
:103EE00000C00000C150F6CF0E5F1F4FFE01F490DE
:103EF00003C00E94F6178E018F2D882309F49FCFEF
:103F0000EFE9FFE03197F1F700C000008150F5CFF5
:103F1000DF91CF911F910F91FF90EF900895089539
:103F20000E948F1F6093BA067093BB068093BC06F5
:103F30009093BD060C94B31B08950C94901F0F939F
:103F40001F930091BA061091BB062091BC063091D8
:103F5000BD06602B712B822B932B1F910F910C941C
:103F6000901F0F931F930091BA061091BB062091EA
:103F7000BC063091BD0660237123822393231F91D9
:103F80000F910C94901F0F931F930091BA061091FC
:103F9000BB062091BC063091BD06602771278227A1
:103FA00093271F910F910C94901F08950C94D51F87
:103FB0000E94D61F6093B6067093B7068093B8062A
:103FC0009093B9060C94B31B60E070E0CB010C94A5
:103FD000D81F0F931F9341E050E060E070E08A012A
:103FE0009B0104C0000F111F221F331F8A95D2F7B7
:103FF000C901B8011F910F910C94D81F0F931F9303
:1040000041E050E060E070E004C0440F551F661FBF
:10401000771F8A95D2F78091B6069091B706A09146
:10402000B806B091B9068A019B01082B192B2A2BDF
:104030003B2BC901B8011F910F910C94D81F0F930E
:104040001F9341E050E060E070E004C0440F551F52
:10405000661F771F8A95D2F74095509560957095A9
:104060008091B6069091B706A091B806B091B906B6
:104070008A019B01082319232A233B23C901B80184
:104080001F910F910C94D81F0F931F9341E050E0A4
:1040900060E070E004C0440F551F661F771F8A95CB
:1040A000D2F78091B6069091B706A091B806B0916C
:1040B000B9068A019B01082719272A273B27C9012E
:1040C000B8011F910F910C94D81F0F931F9300916B
:1040D000B6061091B7062091B8063091B906602B4C
:1040E000712B822B932B1F910F910C94D81F0F9340
:1040F0001F930091B6061091B7062091B806309133
:10410000B90660237123822393231F910F910C948E
:10411000D81F0F931F930091B6061091B7062091F8
:10412000B8063091B90660277127822793271F911F
:104130000F910C94D81F0895CF92DF92EF92FF92C7
:104140000F931F93CF93DF938C01C090BA06D0904A
:10415000BB06E090BC06F090BD068091B60690913B
:10416000B706A091B806B091B906C82AD92AEA2A9A
:10417000FB2ACFE1D0E0D701C6010C2E04C0B695D2
:10418000A795979587950A94D2F780FF06C0B80146
:104190008C2F0E941206019721F4219760F780E08E
:1041A00001C08C2FDF91CF911F910F91FF90EF9065
:1041B000DF90CF900895CF93DF93EC010E949C2075
:1041C000BE010E941206DF91CF910895CB010E949B
:1041D000DB2008958091BE06859585958595089587
:1041E0008091BE068770089598E0899F9001112400
:1041F000262B2093BE060C94FE1F2091BE068095B0
:1042000082238093BE06982F977069F430E0482F80
:10421000082E000C550B2417350729F08595859538
:1042200085950C941F2008959091BE06977081E0AB
:1042300009F480E00895E091D804F091D9048091C8
:10424000CA068083E091D804F091D90490818091CE
:10425000C906892B8083E091D804F091D90490811C
:104260008091C806892B80838091BF06882381F0C6
:10427000E091D804F091D9049081892B80838091BA
:10428000D8049091D9040E94D32181111092BF06C5
:104290008091D8049091D9040C94C2168091CA06DA
:1042A00008959091CA06892B8093CA060895809537
:1042B0009091CA0689238093CA0608951092CA066F
:1042C00008959091C906892B8093C9060895809519
:1042D0009091C90689238093C90608951092C90652
:1042E00008959091C806892B8093C80608958095FB
:1042F0009091C80689238093C80608951092C80635
:1043000008958093BF0608951092BF060895809186
:10431000BF0608956DEE7EEF80E090E00E94D333FB
:1043200060E082E090E00E94C13360E083E090E0D2
:104330000E94C13360E084E090E00E94C13360E0FD
:1043400085E090E00E94C1336FEF87E090E00C942D
:10435000C13380E090E00E94BB3321E08D3E9E4F50
:1043600009F020E0822F089582E090E00C94B333AE
:1043700083E090E00C94B333682F83E090E00C94DA
:10438000C13384E090E00C94B333682F84E090E074
:104390000C94C13387E090E00C94B333682F87E02E
:1043A00090E00C94C133FC0131969C01285F3F4F93
:1043B00080E0919191118F5FE217F307D1F7089593
:1043C0009C01FC0132969FEF80E04191461789F0F5
:1043D0009F3F19F4411101C0982F8F5F8630A9F7D4
:1043E0009F3F39F0F901E90FF11D97FDFA956283BE
:1043F00008950895FC01329608962081261301C085
:1044000010823196E817F907C1F708950C94E0215E
:104410000C94FA21FC01319608961192E817F907DD
:10442000E1F708958091DB07843039F11092CC06D2
:1044300020E488E190E00FB6F894A895809360009E
:104440000FBE2093600080E00E94450483B7817F07
:10445000846083BF83B7816083BF7894889583B776
:104460008E7F83BF0FB6F894A89580916000886115
:1044700080936000109260000FBE08950895089523
:10448000CF930E943E220E94F7080E943F22C0E084
:104490008C2F0E94AB09892B29F4CF5FC530C1F75F
:1044A00080E001C081E0CF9108950E94C71B0E9467
:1044B000B6160C9445041F920F920FB60F9211245A
:1044C0008F939F93AF93BF938091CC06811113C0BC
:1044D0008091E4069091E506A091E606B091E7068A
:1044E0004196A11DB11D8093E4069093E506A0932B
:1044F000E606B093E706BF91AF919F918F910F9021
:104500000FBE0F901F90189582E084BD93E095BD7B
:104510009AEF97BD80936E0008952FB7F89480911D
:10452000E4069091E506A091E606B091E7062FBF5C
:104530000895CF92DF92EF92FF920F931F932FB7C0
:10454000F8944091E4065091E5066091E60670917A
:10455000E7062FBF6A017B01EE24FF248C0120E0D7
:1045600030E0C016D106E206F30610F441505109BE
:104570009A01281B390BC9011F910F91FF90EF90F1
:10458000DF90CF90089578941F920F920FB60F92FC
:1045900011248F939F93AF93BF938091E4069091E2
:1045A000E506A091E606B091E7060196A11DB11DB2
:1045B0008093E4069093E506A093E606B093E706A1
:1045C000BF91AF919F918F910F900FBE0F901F9051
:1045D000189581E08093E00080E28093D8001092EB
:1045E000C9008FE19EE40197F1F700C0000087E069
:1045F00090EBDC018093E4079093E507A093E60736
:10460000B093E7079CE088E10FB6F894A8958093F3
:1046100060000FBE90936000FFCF0E94A92181111E
:1046200002C00E948A210E94B4218093CB060E947E
:10463000C12190E09093E9068093E8060E94B8219A
:10464000682F70E080E090E00C949D1F881F882701
:10465000881F089591E0883F08F490E0892F08951D
:10466000982F907F903BF1F038F49039D9F0903A40
:10467000C9F09038C9F416C0903D49F018F4903C48
:1046800031F012C0903E71F0903F19F00DC082E001
:104690000895815F8F3040F4E82FF0E0EB58FA4F37
:1046A0008081089583E0089580E008950F93022F9C
:1046B0000F77242F2F776F70462F406BDC01ED9121
:1046C000FC9163E070E009950F9108950F93022F1C
:1046D0000F77242F2F776F70462F4069DC01ED9103
:1046E000FC9163E070E009950F9108950F93022FFC
:1046F0000F77242F2F776F70462F4068DC01ED91E4
:10470000FC9163E070E009950F9108950F931F935A
:10471000411520E252073CF44115A0EE5A0734F04F
:104720009A01305E05C02FEF3FE302C020E030E089
:104730008901000F012F001F110B11952F77462FB4
:104740004F70406EDC01ED91FC9163E070E00995E3
:104750001F910F910895FC01738362830895FC01FA
:10476000758F648F0895CF93DF93EC011DA21FA274
:104770001EA2BC01685D7F4F40EC88519F4F0E9494
:10478000D4251B821A821D821C821F821E821986DA
:1047900018861B861A861D861C861F861E86198A09
:1047A000188A1B8A1A8A1D8A1C8A1F8A1E8A198ED9
:1047B000188E1B8E1A8E1D8E1C8E1F8E1E8E19A299
:1047C00018A2DF91CF910895EF92FF920F931F935C
:1047D000CF93DF93162F042FEA0188519F4F7C015E
:1047E0009C2F901B911728F46991C7010E94DB252B
:1047F000F7CFDF91CF911F910F91FF90EF90089528
:10480000FC01718360830895FC0171A360A3089586
:10481000AF92BF92CF92DF92EF92FF920F931F93CE
:10482000CF93DF9300D01F92CDB7DEB77C016B0131
:10483000142FB22EA02EDC0195968C919597843082
:10484000F1F45A96ED91FC915B97309709F4C0C052
:10485000CB01019763E070E00E942933CB01880F00
:10486000991F860F971F4983BA820B834C2D481BD3
:104870009E012F5F3F4FBC01C7010995B6C0623052
:10488000710509F452C06330710529F0613071057A
:1048900009F099C080C0842F807F803AF9F058F4E5
:1048A0008038B1F0803909F093C0D7011496ED91AA
:1048B000FC9115972AC0803EB9F0803FD9F0803B2B
:1048C00009F086C0D7011296ED91FC9113971DC097
:1048D000D7011696ED91FC91179717C0D70118963E
:1048E000ED91FC91199711C0D7011A96ED91FC91A9
:1048F0001B970BC0423F09F06BC0D7011C96ED918E
:10490000FC911D97309731F463C0309709F460C073
:10491000123F21F42A2D4B2D62EF04C02A2D4B2D7E
:10492000612F6F70C701099560C0842F807F803D23
:1049300059F0803F79F0803C09F04AC0D7011E96BB
:10494000ED91FC911F9718C0D7015096ED91FC9105
:10495000519712C0433F31F4D7015296ED91FC912B
:10496000539707C0413FA1F5D7015496ED91FC91B3
:104970005597309739F42CC0309751F1812F8D7FA6
:10498000813F19F44B2D612F03C04B2D612F6F70A8
:10499000C70109952AC0842F0E942A23882331F059
:1049A000D7015696ED91FC91579707C0163F81F4B9
:1049B000D7015896ED91FC915997309749F0612FA6
:1049C000C701099512C06430710510F0C12CD12CBB
:1049D000D7015C96ED91FC915D97309731F00A2DEF
:1049E0002B2D412FB601C7010995D7015E96ED9198
:1049F000FC915F97309731F00A2D2B2D412FB60196
:104A0000C70109950F900F900F90DF91CF911F91E3
:104A10000F91FF90EF90DF90CF90BF90AF900895EF
:104A2000FF920F931F93CF93DF93EC01162F862FE6
:104A30000E942A23882369F0FDA081E08DA300E075
:104A400020E0412F61E070E0CE010E940824FDA229
:104A500070C0812F0E9426234DA1882309F440C0F5
:104A6000443029F01AA381E090E09FA38EA3812F08
:104A70000E943023813031F070F0823051F0833069
:104A800041F02AC08DA300E020E0412F61E070E0FA
:104A90001EC08DA34EC0103FB1F0173FE9F42EA108
:104AA0003FA1C90163E070E00E942933FE01E80FD5
:104AB000F91F12A3B9016F5F7F4F7FA36EA30CA1F3
:104AC0002BA14AA104C084E08DA31AA329C0CE0162
:104AD0000E9408241DA22DC01DA21FA21EA229C033
:104AE000442339F12EA13FA1C90163E070E00E9487
:104AF0002933FE01E80FF91F12A3B9016F5F7F4F41
:104B00007FA36EA38130910581F0029791F40CA1EF
:104B10002BA14AA1CE010E9408248DA1843049F026
:104B200081E090E09FA38EA304C0423011F400E026
:104B3000EFCFDF91CF911F910F91FF900895CF920A
:104B4000DF92EF92FF920F931F93CF93DF93EC01CD
:104B5000E8A1F9A1309709F009956E0188EEC80E19
:104B6000D11CC6010E940D26E12CF12C082F10E06B
:104B7000E016F10680F460E0C6010E942326682F4B
:104B8000CE010E94102561E0C6010E9435268FEFFC
:104B9000E81AF80AEDCFDF91CF911F910F91FF90A6
:104BA000EF90DF90CF900895FC014283748363837C
:104BB0001182108208951F93CF93DF93EC01162F7B
:104BC0000E945726E82F298130E0C90101964A81C9
:104BD000642F70E00E943D33488150E084179507B0
:104BE00029F48E2F0E945A2680E013C08B819C816D
:104BF000DC01A20FB31F1C93298130E0C90101968B
:104C00006A8170E00E943D3389838E2F0E945A266C
:104C100081E0DF91CF911F9108950F931F93CF9360
:104C20008C010E945726F801C1812081C21718F417
:104C3000F8019281C90FC21B0E945A268C2FCF9176
:104C40001F910F910895FC01808170E09B01280F56
:104C5000311DC901628170E00E943D330380F481FF
:104C6000E02DE80FF91F808108950F931F93CF93D4
:104C7000DF931F92CDB7DEB78C0169830E94572660
:104C8000482FF80180816981262F30E0B901680F33
:104C9000711DCB01628170E00E943D338083842FBF
:104CA0000F90DF91CF911F910F910C945A268FB7DF
:104CB000F89408958FBF089508950F931F9363305C
:104CC000710509F04CC0622F842F807F803849F134
:104CD000803909F044C06F7770E080E090E00E9476
:104CE0002E3020E030E040E451E40E94842F9B010C
:104CF000AC0160E070E080E090E40E94B2310F7798
:104D000010E023E0159507952A95E1F72DEC3CEC92
:104D100042E851E40E944531A8011F910F910C9483
:104D2000160F6F7770E080E090E00E942E3020E058
:104D300030E040E451E40E94842F9B01AC0160E02C
:104D400070E080E090E40E94B2312DEC3CEC42E84F
:104D500051E40E9445311F910F910C94740E4C3F09
:104D600021F41F910F910C94390E1F910F9108950A
:104D70000F931F93CF93DF93CDB7DEB727970FB66F
:104D8000F894DEBF0FBECDBF8C01CE0101960E940C
:104D90005429882309F18A810E943023682F8A814F
:104DA0008D838B818E838C818F8361110EC099815D
:104DB000943041F0973031F0963031F0953029F74A
:104DC00061E003C063E001C062E0AE014B5F5F4F92
:104DD000C8010E94E423D9CF27960FB6F894DEBF0E
:104DE0000FBECDBFDF91CF911F910F910895EF922C
:104DF000FF920F93CF93DF9300D000D000D0CDB7B8
:104E0000DEB77B014A832B830C83842F2E834D8353
:104E10000E9430232E814D8181111BC082E0E81653
:104E2000F10471F083E0E816F10421F0EA94EF2830
:104E3000B9F40BC0073F11F487E005C084E003C05C
:104E4000273FE1F786E0898307C0473FB9F785E050
:104E5000FACF42954F704983CE0101960E944F29A7
:104E600026960FB6F894DEBF0FBECDBFDF91CF916F
:104E70000F91FF90EF9008950E944C128AEE96E0F9
:104E80000E94B32367EF76E28AEE96E00E94002448
:104E900068EB76E28AEE96E00E9404246DE576E205
:104EA0008AEE96E00E94AF236CE576E28AEE96E009
:104EB0000C94AB232091DB072430D9F49B01FC0137
:104EC00081818F708093E90040E050E064E070E001
:104ED000C9010E942B2A81110FC09091E800892FEF
:104EE000807295FD08C09091E8009E779093E8004D
:104EF000089582E0089580E008952091DB07243032
:104F0000A1F4FC0181818F708093E9002091F3006E
:104F10008091F20090E0922B892B49F08091E8007B
:104F20008E778093E8000C94D92B82E0089580E07E
:104F30000895FC018091DB07843059F491819F70C2
:104F40009093E9008091E80080FF03C0CF010C94AA
:104F50007D2708952091DB07243011F080E008952B
:104F6000FC0186818F708093E9008091E80082FFC8
:104F7000F5CF8091E80085FFF1CFCB0140E050E014
:104F800064E070E00E94762A8091E80085FD05C00B
:104F90008091E8008B778093E80081E0089580910C
:104FA000D506089508950F931F93CF93DF9300D0F4
:104FB0001F92CDB7DEB78C010E940E2A823011F00D
:104FC000843021F583E089831B830A8382E0809308
:104FD000E9008FEF9091E800815095FD06C095EDB6
:104FE0009A95F1F700008111F5CF8091E80085FFD7
:104FF0000DC040E050E063E070E0CE0101960E94F9
:105000002B2A8091E8008E778093E8000F900F9014
:105010000F90DF91CF911F910F910895CF93DF9360
:1050200000D01F92CDB7DEB72091DB07243029F5E1
:1050300022E02983805891099B838A832093E90089
:105040008FEF9091E800815095FD06C095ED9A95FF
:10505000F1F700008111F5CF8091E80085FF0DC0C8
:1050600040E050E063E070E0CE0101960E942B2A00
:105070008091E8008E778093E8000F900F900F905A
:10508000DF91CF910895CF93DF93EC010E940E2A18
:10509000823011F0843039F581E08093E9009FEF90
:1050A0008091E800915085FD06C085ED8A95F1F765
:1050B00000009111F5CF8091E80085FF14C040E019
:1050C00050E068E070E0CE010E942B2A9091E80049
:1050D0009E779093E80098E0FE01ADECB6E0019079
:1050E0000D929A95E1F7DF91CF9108958091DA07BB
:1050F000811109C00E940B2C0E94682C8091E20053
:1051000084608093E20008951092DA07089508956C
:1051100008950C94552242E061EC81E00E94852BB9
:1051200042E061EC82E00E94852B42E361E883E08B
:105130000E94852B42E360E884E00C94852B8091EB
:10514000DD07833009F453C030F4813071F08230D0
:1051500009F48CC008958A3009F478C08B3009F4C2
:105160005EC0893009F09AC020C08091DC07813A86
:1051700009F094C08091E800877F8093E8008091D7
:10518000E0079091E107892B21F468E08DEC96E02F
:1051900003C060E080E090E070E00E94C12A80914E
:1051A000E8008B778093E80008958091DC078132D6
:1051B00009F074C08091E0079091E107892B09F014
:1051C0006DC08091E800877F8093E8008091E800BF
:1051D00082FD05C08091DB078111F8CF5FC080910F
:1051E000F1008093D5068091E8008B7753C08091C1
:1051F000DC07813A09F052C08091E0079091E10705
:10520000892B09F04BC08091E800877F8093E800EC
:105210008091E80080FFFCCF8091F00436C080913F
:10522000DC078132D9F58091E0079091E107892B65
:10523000A9F58091E800877F8093E8000E94BA2B4F
:105240008091DE078093F0040C94C71B8091DC07EB
:10525000813221F58091E800877F8093E8000E94E9
:10526000BA2B8091DF078093D60608958091DC07E2
:10527000813AA1F48091E800877F8093E8008091D3
:10528000E80080FFFCCF8091D6068093F1008091EA
:10529000E8008E778093E8000C94BA2B0895BC0147
:1052A0008AED94E00C945A27BC018AED94E00C94AA
:1052B000AA270E943C2784B7877F84BF0FB6F89443
:1052C000A8958091600088618093600010926000D2
:1052D0000FBE80E880936100109261000E94FA1670
:1052E0000E940B2C0E94682C8091E20084608093C5
:1052F000E20078940E94F72E0E94FE1686EE94E05B
:105300000E94B1168091DB07853069F40E94122259
:105310008091D9078823B1F30E944022882391F31A
:105320000E94152AEFCF0E9404178AED94E00E9494
:105330009927E8CF0C949C29292F33272330310556
:10534000C9F064F42130310581F02230310509F0D3
:105350004CC08FE990E02AEE34E04BC02132310599
:1053600021F12232310589F140C082E190E029E843
:1053700035E03FC099278130910571F02CF4892BDD
:10538000A1F5E6EEF4E00DC08230910541F00397FF
:1053900061F5E2ECF4E005C0EAEDF4E002C0E8EC0F
:1053A000F4E0849190E09F0124C06115710541F003
:1053B00061307105D1F489E090E025E135E019C054
:1053C00089E090E02CEF34E014C06115710541F0E4
:1053D0006130710551F486E390E02BE935E009C0B6
:1053E00080E490E021ED35E004C080E090E020E032
:1053F00030E0FA013183208308950895CF93C82FB8
:105400000E94FD29C093D706CF9108958091DB07B4
:10541000843011F081E0089582E008958091D706EC
:10542000811102C00C94062A089580E189BD82E1B1
:1054300089BD09B400FEFDCF8091D8008F7D809397
:10544000D8008091E00082608093E0008091E000CD
:1054500081FDFCCF0895CF92DF92EF92FF920F93E0
:105460001F93CF93DF93EC018B016A010E94D92B2C
:10547000811133C0C114D10439F0F60180819181CA
:10548000081B190BC80FD91FE12CF12C01151105B0
:1054900019F18091E80085FD16C08091E8008E77B3
:1054A0008093E800C114D10449F0F6018081918114
:1054B000E80EF91EF182E08285E00FC00E94D92B30
:1054C000882321F30AC089918093F10001501109CA
:1054D000FFEFEF1AFF0ADACF80E0DF91CF911F9143
:1054E0000F91FF90EF90DF90CF900895CF92DF92D1
:1054F000EF92FF920F931F93CF93DF93EC018B01F9
:105500006A010E94D92B811133C0C114D10439F032
:10551000F60180819181081B190BC80FD91FE12C5E
:10552000F12C0115110519F18091E80085FD16C0D7
:105530008091E8008B778093E800C114D10449F092
:10554000F60180819181E80EF91EF182E08285E00A
:105550000FC00E94D92B882321F30AC08091F1004B
:10556000899301501109FFEFEF1AFF0ADACF80E0AB
:10557000DF91CF911F910F91FF90EF90DF90CF902F
:1055800008952091E2073091E3072617370748F086
:105590006115710539F42091E8002E772093E80019
:1055A00001C0B90140E061157105A9F12091DB0747
:1055B000222309F443C0253009F442C02091E800B9
:1055C00023FD40C02091E80022FD32C02091E80078
:1055D00020FFE9CF4091F3002091F20030E0342B1E
:1055E000FC01CF016115710559F02830310540F4F7
:1055F00081918093F100615071092F5F3F4FF1CF8E
:1056000041E02830310509F040E02091E8002E7794
:105610002093E800C8CF4111C9CF0AC08091DB07B1
:10562000882361F0853061F08091E80083FD0AC035
:105630008091E80082FFF2CF80E0089582E0089533
:1056400083E0089581E008952091E2073091E30717
:105650002617370748F06115710539F42091E800E5
:105660002E772093E80001C0B901FC0120E061150C
:10567000710591F18091DB07882309F440C08530E2
:1056800009F43FC08091E80083FD3DC08091E800AF
:1056900082FD2FC08091E80080FFE9CF2091F300C8
:1056A0008091F20090E0922B6115710559F08830DD
:1056B000910540F424912093F100319661507109D5
:1056C0000196F2CF21E0089709F020E08091E800F0
:1056D0008E778093E800CBCF2111CCCF0AC0809188
:1056E000DB07882361F0853061F08091E80083FD5D
:1056F0000AC08091E80082FFF2CF80E0089582E046
:10570000089583E0089581E00895982F973058F523
:105710009093E900981739F07091EC002091ED001A
:105720005091F00003C0242F762F50E021FF19C0C4
:105730003091EB003E7F3093EB003091ED003D7FE8
:105740003093ED003091EB0031603093EB007093BB
:10575000EC002093ED005093F0002091EE0027FF25
:1057600007C09F5FD3CF8F708093E90081E00895D9
:1057700080E008958091DC0787FF11C08091E800E8
:1057800082FD05C08091DB078111F8CF11C08091A7
:10579000E8008B770BC08091DB07882349F080916C
:1057A000E80080FFF8CF8091E8008E778093E800D2
:1057B00008952091E4003091E50095E64091EC00D9
:1057C000842F817040FF22C08091E80080FD1CC0C2
:1057D0008091DB07882391F0853091F08091EB0078
:1057E00085FD10C04091E4005091E5004217530739
:1057F00029F39A01915011F784E0089582E0089509
:1058000083E0089581E0089580E008954091E800E4
:1058100042FFDECF08950E94792C0E94812CE0EE99
:10582000F0E0808181608083E8EDF0E080818F7717
:10583000808319BCA7EDB0E08C918E7F8C93808122
:105840008F7E80831092DA0708950F931F93CF9372
:10585000DF930E94792C0E94812CC8EDD0E08881D2
:105860008F77888388818068888388818F7D88830B
:1058700019BC1092DB071092D7071092D90710922B
:10588000D80700EE10E0F80180818B7F808388814B
:105890008160888342E060E080E00E94852BE1EE39
:1058A000F0E080818E7F8083E2EEF0E08081816095
:1058B0008083808188608083F80180818E7F8083EF
:1058C000888180618883DF91CF911F910F91089526
:1058D000E8EDF0E080818F7E8083E7EDF0E080816D
:1058E0008160808384E082BF81E08093DA070C943A
:1058F000252CE8EDF0E080818E7F80831092E2001D
:1059000008951092DA001092E10008951F920F920C
:105910000FB60F9211242F933F934F935F936F9382
:105920007F938F939F93AF93BF93EF93FF93809158
:10593000E10082FF0BC08091E20082FF07C08091EE
:10594000E1008B7F8093E1000E94F62E8091DA00C7
:1059500080FF1FC08091D80080FF1BC08091DA00BB
:105960008E7F8093DA008091D90080FF0DC080E1A6
:1059700089BD82E189BD09B400FEFDCF81E080933D
:10598000DB070E94762805C019BC1092DB070E9435
:1059900084288091E10080FF19C08091E20080FF9F
:1059A00015C08091E2008E7F8093E2008091E2003A
:1059B00080618093E2008091D80080628093D8005B
:1059C00019BC85E08093DB070E9488288091E10064
:1059D00084FF30C08091E20084FF2CC080E189BD4B
:1059E00082E189BD09B400FEFDCF8091D8008F7D92
:1059F0008093D8008091E1008F7E8093E1008091B8
:105A0000E2008F7E8093E2008091E20081608093CB
:105A1000E2008091D707882311F084E007C08091CD
:105A2000E30087FD02C081E001C083E08093DB07D3
:105A30000E9489288091E10083FF29C08091E200C3
:105A400083FF25C08091E100877F8093E10082E0A1
:105A50008093DB071092D7078091E1008E7F8093BF
:105A6000E1008091E2008E7F8093E2008091E2006D
:105A700080618093E20042E060E080E00E94852B3C
:105A80008091F00088608093F0000E948728FF9149
:105A9000EF91BF91AF919F918F917F916F915F91A6
:105AA0004F913F912F910F900FBE0F901F9018951F
:105AB0001F920F920FB60F9211242F933F934F9383
:105AC0005F936F937F938F939F93AF93BF93CF9386
:105AD000DF93EF93FF93C091E900CF708091EC00CA
